{
  "contractName": "AuthContract",
  "abi": [
    {
      "inputs": [
        {
          "internalType": "string",
          "name": "_username",
          "type": "string"
        },
        {
          "internalType": "string",
          "name": "_email",
          "type": "string"
        },
        {
          "internalType": "string",
          "name": "_password",
          "type": "string"
        }
      ],
      "name": "register",
      "outputs": [
        {
          "internalType": "string",
          "name": "",
          "type": "string"
        }
      ],
      "stateMutability": "nonpayable",
      "type": "function"
    },
    {
      "inputs": [
        {
          "internalType": "string",
          "name": "_username",
          "type": "string"
        },
        {
          "internalType": "string",
          "name": "_password",
          "type": "string"
        }
      ],
      "name": "login",
      "outputs": [
        {
          "internalType": "string",
          "name": "",
          "type": "string"
        }
      ],
      "stateMutability": "view",
      "type": "function"
    }
  ],
  "bytecode": "0x608060405234801561001057600080fd5b50610a1e806100206000396000f3fe608060405234801561001057600080fd5b50600436106100365760003560e01c80634cd08d031461003b57806358467dbc1461006b575b600080fd5b61005560048036038101906100509190610669565b61009b565b6040516100629190610846565b60405180910390f35b610085600480360381019061008091906105fd565b610237565b6040516100929190610846565b60405180910390f35b60606040516020016100ac90610831565b604051602081830303815290604052805190602001206000856040516100d29190610803565b90815260200160405180910390206000016040516020016100f3919061081a565b604051602081830303815290604052805190602001201461014b576040518060400160405280601381526020017f5573657220616c726561647920657869737473000000000000000000000000008152509050610230565b60008260405160200161015e9190610803565b6040516020818303038152906040528051906020012090506040518060600160405280868152602001858152602001828152506000866040516101a19190610803565b908152602001604051809103902060008201518160000190805190602001906101cb9291906104f2565b5060208201518160010190805190602001906101e89291906104f2565b50604082015181600201559050506040518060400160405280600481526020017f74727565000000000000000000000000000000000000000000000000000000008152509150505b9392505050565b606060405160200161024890610831565b6040516020818303038152906040528051906020012060008460405161026e9190610803565b908152602001604051809103902060000160405160200161028f919061081a565b6040516020818303038152906040528051906020012014156102e8576040518060400160405280601781526020017f4163636f756e7420646f6573206e6f742065786973747300000000000000000081525090506104ec565b600080846040516102f99190610803565b908152602001604051809103902060405180606001604052908160008201805461032290610947565b80601f016020809104026020016040519081016040528092919081815260200182805461034e90610947565b801561039b5780601f106103705761010080835404028352916020019161039b565b820191906000526020600020905b81548152906001019060200180831161037e57829003601f168201915b505050505081526020016001820180546103b490610947565b80601f01602080910402602001604051908101604052809291908181526020018280546103e090610947565b801561042d5780601f106104025761010080835404028352916020019161042d565b820191906000526020600020905b81548152906001019060200180831161041057829003601f168201915b505050505081526020016002820154815250509050826040516020016104539190610803565b60405160208183030381529060405280519060200120816040015114156104b2576040518060400160405280600481526020017f74727565000000000000000000000000000000000000000000000000000000008152509150506104ec565b6040518060400160405280601081526020017f496e76616c69642050617373776f7264000000000000000000000000000000008152509150505b92915050565b8280546104fe90610947565b90600052602060002090601f0160209004810192826105205760008555610567565b82601f1061053957805160ff1916838001178555610567565b82800160010185558215610567579182015b8281111561056657825182559160200191906001019061054b565b5b5090506105749190610578565b5090565b5b80821115610591576000816000905550600101610579565b5090565b60006105a86105a384610899565b610868565b9050828152602081018484840111156105c057600080fd5b6105cb848285610905565b509392505050565b600082601f8301126105e457600080fd5b81356105f4848260208601610595565b91505092915050565b6000806040838503121561061057600080fd5b600083013567ffffffffffffffff81111561062a57600080fd5b610636858286016105d3565b925050602083013567ffffffffffffffff81111561065357600080fd5b61065f858286016105d3565b9150509250929050565b60008060006060848603121561067e57600080fd5b600084013567ffffffffffffffff81111561069857600080fd5b6106a4868287016105d3565b935050602084013567ffffffffffffffff8111156106c157600080fd5b6106cd868287016105d3565b925050604084013567ffffffffffffffff8111156106ea57600080fd5b6106f6868287016105d3565b9150509250925092565b600061070b826108de565b61071581856108e9565b9350610725818560208601610914565b61072e816109d7565b840191505092915050565b6000610744826108de565b61074e81856108fa565b935061075e818560208601610914565b80840191505092915050565b6000815461077781610947565b61078181866108fa565b9450600182166000811461079c57600181146107ad576107e0565b60ff198316865281860193506107e0565b6107b6856108c9565b60005b838110156107d8578154818901526001820191506020810190506107b9565b838801955050505b50505092915050565b60006107f66000836108fa565b9150600082019050919050565b600061080f8284610739565b915081905092915050565b6000610826828461076a565b915081905092915050565b600061083c826107e9565b9150819050919050565b600060208201905081810360008301526108608184610700565b905092915050565b6000604051905081810181811067ffffffffffffffff8211171561088f5761088e6109a8565b5b8060405250919050565b600067ffffffffffffffff8211156108b4576108b36109a8565b5b601f19601f8301169050602081019050919050565b60008190508160005260206000209050919050565b600081519050919050565b600082825260208201905092915050565b600081905092915050565b82818337600083830152505050565b60005b83811015610932578082015181840152602081019050610917565b83811115610941576000848401525b50505050565b6000600282049050600182168061095f57607f821691505b6020821081141561097357610972610979565b5b50919050565b7f4e487b7100000000000000000000000000000000000000000000000000000000600052602260045260246000fd5b7f4e487b7100000000000000000000000000000000000000000000000000000000600052604160045260246000fd5b6000601f19601f830116905091905056fea2646970667358221220e9864934ffebe2ca5962ed05a2aea45b933e1dd65592631c97f0b8e3ba6b918064736f6c63430008000033",
  "immutableReferences": {},
  "source": "// SPDX-License-Identifier: MIT\r\npragma solidity ^0.8.0;\r\n\r\ncontract AuthContract {\r\n    \r\n    struct User {\r\n        string username;\r\n        string email;\r\n        bytes32 hashedPassword;\r\n    }\r\n\r\n    mapping(string => User) private users;\r\n\r\n    function register(string memory _username,string memory _email, string memory _password) public returns (string memory) {\r\n        if( keccak256(abi.encodePacked(users[_username].username))  != keccak256(abi.encodePacked(\"\")))\r\n        {\r\n            return \"User already exists\";\r\n        }\r\n        bytes32 hashedPassword = keccak256(abi.encodePacked(_password));\r\n        users[_username] = User(_username,_email,hashedPassword);\r\n        return \"true\";\r\n    }\r\n\r\n    function login(string memory _username, string memory _password) public view returns (string memory) {\r\n        if(keccak256(abi.encodePacked(users[_username].username)) == keccak256(abi.encodePacked(\"\"))) return \"Account does not exists\";\r\n        User memory user = users[_username];        \r\n        if(user.hashedPassword == keccak256(abi.encodePacked(_password)))\r\n        {\r\n            return \"true\";\r\n        }\r\n        else\r\n        {\r\n            return \"Invalid Password\";\r\n        }\r\n    }\r\n\r\n}",
  "sourcePath": "C:\\Users\\jayes\\Desktop\\mediconnect\\blockchain\\contracts\\AuthContract.sol",
  "compiler": {
    "name": "solc",
    "version": "0.8.0+commit.c7dfd78e.Emscripten.clang"
  },
  "schemaVersion": "3.4.16",
  "updatedAt": "2024-05-08T11:49:45.255Z",
  "devdoc": {
    "kind": "dev",
    "methods": {},
    "version": 1
  },
  "userdoc": {
    "kind": "user",
    "methods": {},
    "version": 1
  }
}