{
  "contractName": "FinalAuthContract",
  "abi": [
    {
      "inputs": [
        {
          "internalType": "string",
          "name": "_username",
          "type": "string"
        },
        {
          "internalType": "string",
          "name": "_email",
          "type": "string"
        },
        {
          "internalType": "string",
          "name": "_password",
          "type": "string"
        }
      ],
      "name": "register",
      "outputs": [],
      "stateMutability": "nonpayable",
      "type": "function"
    },
    {
      "inputs": [
        {
          "internalType": "string",
          "name": "_username",
          "type": "string"
        },
        {
          "internalType": "string",
          "name": "_password",
          "type": "string"
        }
      ],
      "name": "login",
      "outputs": [
        {
          "internalType": "bool",
          "name": "",
          "type": "bool"
        }
      ],
      "stateMutability": "view",
      "type": "function"
    }
  ],
  "bytecode": "0x608060405234801561001057600080fd5b506106d5806100206000396000f3fe608060405234801561001057600080fd5b50600436106100365760003560e01c80634cd08d031461003b57806358467dbc14610057575b600080fd5b61005560048036038101906100509190610441565b610087565b005b610071600480360381019061006c91906103d5565b610138565b60405161007e919061052f565b60405180910390f35b60008160405160200161009a9190610518565b6040516020818303038152906040528051906020012090506040518060600160405280858152602001848152602001828152506000856040516100dd9190610518565b908152602001604051809103902060008201518160000190805190602001906101079291906102ca565b5060208201518160010190805190602001906101249291906102ca565b506040820151816002015590505050505050565b60008060008460405161014b9190610518565b90815260200160405180910390206040518060600160405290816000820180546101749061060f565b80601f01602080910402602001604051908101604052809291908181526020018280546101a09061060f565b80156101ed5780601f106101c2576101008083540402835291602001916101ed565b820191906000526020600020905b8154815290600101906020018083116101d057829003601f168201915b505050505081526020016001820180546102069061060f565b80601f01602080910402602001604051908101604052809291908181526020018280546102329061060f565b801561027f5780601f106102545761010080835404028352916020019161027f565b820191906000526020600020905b81548152906001019060200180831161026257829003601f168201915b505050505081526020016002820154815250509050826040516020016102a59190610518565b6040516020818303038152906040528051906020012081604001511491505092915050565b8280546102d69061060f565b90600052602060002090601f0160209004810192826102f8576000855561033f565b82601f1061031157805160ff191683800117855561033f565b8280016001018555821561033f579182015b8281111561033e578251825591602001919060010190610323565b5b50905061034c9190610350565b5090565b5b80821115610369576000816000905550600101610351565b5090565b600061038061037b8461057b565b61054a565b90508281526020810184848401111561039857600080fd5b6103a38482856105cd565b509392505050565b600082601f8301126103bc57600080fd5b81356103cc84826020860161036d565b91505092915050565b600080604083850312156103e857600080fd5b600083013567ffffffffffffffff81111561040257600080fd5b61040e858286016103ab565b925050602083013567ffffffffffffffff81111561042b57600080fd5b610437858286016103ab565b9150509250929050565b60008060006060848603121561045657600080fd5b600084013567ffffffffffffffff81111561047057600080fd5b61047c868287016103ab565b935050602084013567ffffffffffffffff81111561049957600080fd5b6104a5868287016103ab565b925050604084013567ffffffffffffffff8111156104c257600080fd5b6104ce868287016103ab565b9150509250925092565b6104e1816105c1565b82525050565b60006104f2826105ab565b6104fc81856105b6565b935061050c8185602086016105dc565b80840191505092915050565b600061052482846104e7565b915081905092915050565b600060208201905061054460008301846104d8565b92915050565b6000604051905081810181811067ffffffffffffffff8211171561057157610570610670565b5b8060405250919050565b600067ffffffffffffffff82111561059657610595610670565b5b601f19601f8301169050602081019050919050565b600081519050919050565b600081905092915050565b60008115159050919050565b82818337600083830152505050565b60005b838110156105fa5780820151818401526020810190506105df565b83811115610609576000848401525b50505050565b6000600282049050600182168061062757607f821691505b6020821081141561063b5761063a610641565b5b50919050565b7f4e487b7100000000000000000000000000000000000000000000000000000000600052602260045260246000fd5b7f4e487b7100000000000000000000000000000000000000000000000000000000600052604160045260246000fdfea26469706673582212202a32212f81ca71af83416b18c7b233ffec7f26379af64c13475e4276a3447f5864736f6c63430008000033",
  "immutableReferences": {},
  "source": "// SPDX-License-Identifier: MIT\r\npragma solidity ^0.8.0;\r\n\r\ncontract FinalAuthContract {\r\n    \r\n    struct User {\r\n        string username;\r\n        string email;\r\n        bytes32 hashedPassword;\r\n    }\r\n\r\n    mapping(string => User) private users;\r\n\r\n    function register(string memory _username,string memory _email, string memory _password) public {\r\n        bytes32 hashedPassword = keccak256(abi.encodePacked(_password));\r\n        users[_username] = User(_username,_email,hashedPassword);\r\n    }\r\n\r\n    function login(string memory _username, string memory _password) public view returns (bool) {\r\n        User memory user = users[_username];\r\n        return (user.hashedPassword == keccak256(abi.encodePacked(_password)));\r\n    }\r\n\r\n}",
  "sourcePath": "C:\\Users\\jayes\\Desktop\\mediconnect\\blockchain\\contracts\\FinalAuthContract.sol",
  "compiler": {
    "name": "solc",
    "version": "0.8.0+commit.c7dfd78e.Emscripten.clang"
  },
  "schemaVersion": "3.4.16",
  "updatedAt": "2024-05-08T11:49:45.259Z",
  "devdoc": {
    "kind": "dev",
    "methods": {},
    "version": 1
  },
  "userdoc": {
    "kind": "user",
    "methods": {},
    "version": 1
  }
}