{
  "contractName": "MedicalHistory",
  "abi": [
    {
      "inputs": [
        {
          "internalType": "uint256",
          "name": "",
          "type": "uint256"
        },
        {
          "internalType": "uint256",
          "name": "",
          "type": "uint256"
        }
      ],
      "name": "medicalRecordsByAadhar",
      "outputs": [
        {
          "internalType": "string",
          "name": "disease",
          "type": "string"
        },
        {
          "internalType": "string",
          "name": "doctorName",
          "type": "string"
        },
        {
          "internalType": "uint256",
          "name": "date",
          "type": "uint256"
        }
      ],
      "stateMutability": "view",
      "type": "function"
    },
    {
      "inputs": [
        {
          "internalType": "uint256",
          "name": "aadharNumber",
          "type": "uint256"
        },
        {
          "internalType": "string",
          "name": "disease",
          "type": "string"
        },
        {
          "internalType": "string[]",
          "name": "medications",
          "type": "string[]"
        },
        {
          "internalType": "string",
          "name": "doctorName",
          "type": "string"
        },
        {
          "internalType": "uint256",
          "name": "date",
          "type": "uint256"
        }
      ],
      "name": "addMedicalRecord",
      "outputs": [],
      "stateMutability": "nonpayable",
      "type": "function"
    },
    {
      "inputs": [
        {
          "internalType": "uint256",
          "name": "aadharNumber",
          "type": "uint256"
        }
      ],
      "name": "getMedicalRecords",
      "outputs": [
        {
          "components": [
            {
              "internalType": "string",
              "name": "disease",
              "type": "string"
            },
            {
              "internalType": "string[]",
              "name": "medications",
              "type": "string[]"
            },
            {
              "internalType": "string",
              "name": "doctorName",
              "type": "string"
            },
            {
              "internalType": "uint256",
              "name": "date",
              "type": "uint256"
            }
          ],
          "internalType": "struct MedicalHistory.MedicalRecord[]",
          "name": "",
          "type": "tuple[]"
        }
      ],
      "stateMutability": "view",
      "type": "function"
    }
  ],
  "bytecode": "0x608060405234801561001057600080fd5b50610dc8806100206000396000f3fe608060405234801561001057600080fd5b50600436106100415760003560e01c8063a594f95914610046578063c123a26f14610078578063ffbcfac214610094575b600080fd5b610060600480360381019061005b91906108ac565b6100c4565b60405161006f93929190610b1d565b60405180910390f35b610092600480360381019061008d91906107ed565b61021b565b005b6100ae60048036038101906100a991906107c4565b6102e1565b6040516100bb9190610afb565b60405180910390f35b600060205281600052604060002081815481106100e057600080fd5b90600052602060002090600402016000915091505080600001805461010490610cda565b80601f016020809104026020016040519081016040528092919081815260200182805461013090610cda565b801561017d5780601f106101525761010080835404028352916020019161017d565b820191906000526020600020905b81548152906001019060200180831161016057829003601f168201915b50505050509080600201805461019290610cda565b80601f01602080910402602001604051908101604052809291908181526020018280546101be90610cda565b801561020b5780601f106101e05761010080835404028352916020019161020b565b820191906000526020600020905b8154815290600101906020018083116101ee57829003601f168201915b5050505050908060030154905083565b60008086815260200190815260200160002060405180608001604052808681526020018581526020018481526020018381525090806001815401808255809150506001900390600052602060002090600402016000909190919091506000820151816000019080519060200190610293929190610559565b5060208201518160010190805190602001906102b09291906105df565b5060408201518160020190805190602001906102cd929190610559565b506060820151816003015550505050505050565b6060600080838152602001908152602001600020805480602002602001604051908101604052809291908181526020016000905b8282101561054e578382906000526020600020906004020160405180608001604052908160008201805461034890610cda565b80601f016020809104026020016040519081016040528092919081815260200182805461037490610cda565b80156103c15780601f10610396576101008083540402835291602001916103c1565b820191906000526020600020905b8154815290600101906020018083116103a457829003601f168201915b5050505050815260200160018201805480602002602001604051908101604052809291908181526020016000905b8282101561049b57838290600052602060002001805461040e90610cda565b80601f016020809104026020016040519081016040528092919081815260200182805461043a90610cda565b80156104875780601f1061045c57610100808354040283529160200191610487565b820191906000526020600020905b81548152906001019060200180831161046a57829003601f168201915b5050505050815260200190600101906103ef565b5050505081526020016002820180546104b390610cda565b80601f01602080910402602001604051908101604052809291908181526020018280546104df90610cda565b801561052c5780601f106105015761010080835404028352916020019161052c565b820191906000526020600020905b81548152906001019060200180831161050f57829003601f168201915b5050505050815260200160038201548152505081526020019060010190610315565b505050509050919050565b82805461056590610cda565b90600052602060002090601f01602090048101928261058757600085556105ce565b82601f106105a057805160ff19168380011785556105ce565b828001600101855582156105ce579182015b828111156105cd5782518255916020019190600101906105b2565b5b5090506105db919061063f565b5090565b82805482825590600052602060002090810192821561062e579160200282015b8281111561062d57825182908051906020019061061d929190610559565b50916020019190600101906105ff565b5b50905061063b919061065c565b5090565b5b80821115610658576000816000905550600101610640565b5090565b5b8082111561067c57600081816106739190610680565b5060010161065d565b5090565b50805461068c90610cda565b6000825580601f1061069e57506106bd565b601f0160209004906000526020600020908101906106bc919061063f565b5b50565b60006106d36106ce84610b93565b610b62565b9050808382526020820190508260005b8581101561071357813585016106f98882610785565b8452602084019350602083019250506001810190506106e3565b5050509392505050565b600061073061072b84610bbf565b610b62565b90508281526020810184848401111561074857600080fd5b610753848285610c98565b509392505050565b600082601f83011261076c57600080fd5b813561077c8482602086016106c0565b91505092915050565b600082601f83011261079657600080fd5b81356107a684826020860161071d565b91505092915050565b6000813590506107be81610d7b565b92915050565b6000602082840312156107d657600080fd5b60006107e4848285016107af565b91505092915050565b600080600080600060a0868803121561080557600080fd5b6000610813888289016107af565b955050602086013567ffffffffffffffff81111561083057600080fd5b61083c88828901610785565b945050604086013567ffffffffffffffff81111561085957600080fd5b6108658882890161075b565b935050606086013567ffffffffffffffff81111561088257600080fd5b61088e88828901610785565b925050608061089f888289016107af565b9150509295509295909350565b600080604083850312156108bf57600080fd5b60006108cd858286016107af565b92505060206108de858286016107af565b9150509250929050565b60006108f483836109fa565b905092915050565b60006109088383610a6c565b905092915050565b600061091b82610c0f565b6109258185610c4a565b93508360208202850161093785610bef565b8060005b85811015610973578484038952815161095485826108e8565b945061095f83610c30565b925060208a0199505060018101905061093b565b50829750879550505050505092915050565b600061099082610c1a565b61099a8185610c5b565b9350836020820285016109ac85610bff565b8060005b858110156109e857848403895281516109c985826108fc565b94506109d483610c3d565b925060208a019950506001810190506109b0565b50829750879550505050505092915050565b6000610a0582610c25565b610a0f8185610c6c565b9350610a1f818560208601610ca7565b610a2881610d6a565b840191505092915050565b6000610a3e82610c25565b610a488185610c7d565b9350610a58818560208601610ca7565b610a6181610d6a565b840191505092915050565b60006080830160008301518482036000860152610a8982826109fa565b91505060208301518482036020860152610aa38282610910565b91505060408301518482036040860152610abd82826109fa565b9150506060830151610ad26060860182610add565b508091505092915050565b610ae681610c8e565b82525050565b610af581610c8e565b82525050565b60006020820190508181036000830152610b158184610985565b905092915050565b60006060820190508181036000830152610b378186610a33565b90508181036020830152610b4b8185610a33565b9050610b5a6040830184610aec565b949350505050565b6000604051905081810181811067ffffffffffffffff82111715610b8957610b88610d3b565b5b8060405250919050565b600067ffffffffffffffff821115610bae57610bad610d3b565b5b602082029050602081019050919050565b600067ffffffffffffffff821115610bda57610bd9610d3b565b5b601f19601f8301169050602081019050919050565b6000819050602082019050919050565b6000819050602082019050919050565b600081519050919050565b600081519050919050565b600081519050919050565b6000602082019050919050565b6000602082019050919050565b600082825260208201905092915050565b600082825260208201905092915050565b600082825260208201905092915050565b600082825260208201905092915050565b6000819050919050565b82818337600083830152505050565b60005b83811015610cc5578082015181840152602081019050610caa565b83811115610cd4576000848401525b50505050565b60006002820490506001821680610cf257607f821691505b60208210811415610d0657610d05610d0c565b5b50919050565b7f4e487b7100000000000000000000000000000000000000000000000000000000600052602260045260246000fd5b7f4e487b7100000000000000000000000000000000000000000000000000000000600052604160045260246000fd5b6000601f19601f8301169050919050565b610d8481610c8e565b8114610d8f57600080fd5b5056fea264697066735822122007ab53bf8b6fec599287ebab96fd1b346dd42f243c0726e98fe8f9df06a0903c64736f6c63430008000033",
  "immutableReferences": {},
  "source": "// SPDX-License-Identifier: SEE LICENSE IN LICENSE\r\npragma solidity ^0.8.0  ;\r\n\r\ncontract MedicalHistory {\r\n\r\n    struct MedicalRecord {\r\n        string disease;\r\n        string[] medications;\r\n        string doctorName;\r\n        uint date;\r\n    }\r\n    mapping (uint => MedicalRecord[]) public medicalRecordsByAadhar;\r\n\r\n    function addMedicalRecord(\r\n        uint aadharNumber,\r\n        string memory disease,\r\n        string[] memory medications,\r\n        string memory doctorName,\r\n        uint date\r\n    ) public {\r\n        medicalRecordsByAadhar[aadharNumber].push(MedicalRecord(disease,medications,doctorName,date));\r\n    }\r\n\r\n    function getMedicalRecords(uint aadharNumber) public view returns (MedicalRecord[] memory) {\r\n        return medicalRecordsByAadhar[aadharNumber];\r\n    }\r\n}\r\n\r\n",
  "sourcePath": "C:\\Users\\jayes\\Desktop\\mediconnect\\blockchain\\contracts\\MedicalHistory.sol",
  "compiler": {
    "name": "solc",
    "version": "0.8.0+commit.c7dfd78e.Emscripten.clang"
  },
  "schemaVersion": "3.4.16",
  "updatedAt": "2024-05-08T11:49:45.264Z",
  "devdoc": {
    "kind": "dev",
    "methods": {},
    "version": 1
  },
  "userdoc": {
    "kind": "user",
    "methods": {},
    "version": 1
  }
}