{
  "contractName": "PaymentProcessor",
  "abi": [
    {
      "anonymous": false,
      "inputs": [
        {
          "indexed": true,
          "internalType": "address",
          "name": "_from",
          "type": "address"
        },
        {
          "indexed": true,
          "internalType": "address",
          "name": "_to",
          "type": "address"
        },
        {
          "indexed": false,
          "internalType": "uint256",
          "name": "_amount",
          "type": "uint256"
        }
      ],
      "name": "PaymentSent",
      "type": "event"
    },
    {
      "stateMutability": "payable",
      "type": "receive"
    },
    {
      "inputs": [
        {
          "internalType": "address payable",
          "name": "_to",
          "type": "address"
        },
        {
          "internalType": "uint256",
          "name": "_amount",
          "type": "uint256"
        }
      ],
      "name": "sendPayment",
      "outputs": [],
      "stateMutability": "payable",
      "type": "function"
    },
    {
      "inputs": [],
      "name": "withdraw",
      "outputs": [],
      "stateMutability": "nonpayable",
      "type": "function"
    },
    {
      "inputs": [],
      "name": "owner",
      "outputs": [
        {
          "internalType": "address",
          "name": "",
          "type": "address"
        }
      ],
      "stateMutability": "view",
      "type": "function"
    }
  ],
  "bytecode": "0x608060405234801561001057600080fd5b5061049f806100206000396000f3fe6080604052600436106100385760003560e01c80633ccfd60b146100445780638da5cb5b1461005b578063935f4c18146100865761003f565b3661003f57005b600080fd5b34801561005057600080fd5b506100596100a2565b005b34801561006757600080fd5b50610070610167565b60405161007d9190610366565b60405180910390f35b6100a0600480360381019061009b919061028c565b61016f565b005b6100aa610167565b73ffffffffffffffffffffffffffffffffffffffff163373ffffffffffffffffffffffffffffffffffffffff1614610117576040517f08c379a000000000000000000000000000000000000000000000000000000000815260040161010e90610381565b60405180910390fd5b61011f610167565b73ffffffffffffffffffffffffffffffffffffffff166108fc479081150290604051600060405180830381858888f19350505050158015610164573d6000803e3d6000fd5b50565b600033905090565b348111156101b2576040517f08c379a00000000000000000000000000000000000000000000000000000000081526004016101a9906103a1565b60405180910390fd5b8173ffffffffffffffffffffffffffffffffffffffff166108fc829081150290604051600060405180830381858888f193505050501580156101f8573d6000803e3d6000fd5b508173ffffffffffffffffffffffffffffffffffffffff163373ffffffffffffffffffffffffffffffffffffffff167fd52bd61f7c422d441e024604f4517878fd3305d6acf0fe37baef23ed21af6bc98360405161025691906103c1565b60405180910390a35050565b6000813590506102718161043b565b92915050565b60008135905061028681610452565b92915050565b6000806040838503121561029f57600080fd5b60006102ad85828601610262565b92505060206102be85828601610277565b9150509250929050565b6102d1816103ed565b82525050565b60006102e4601b836103dc565b91507f4f6e6c7920746865206f776e65722063616e20776974686472617700000000006000830152602082019050919050565b60006103246017836103dc565b91507f496e73756666696369656e742066756e64732073656e740000000000000000006000830152602082019050919050565b61036081610431565b82525050565b600060208201905061037b60008301846102c8565b92915050565b6000602082019050818103600083015261039a816102d7565b9050919050565b600060208201905081810360008301526103ba81610317565b9050919050565b60006020820190506103d66000830184610357565b92915050565b600082825260208201905092915050565b60006103f882610411565b9050919050565b600061040a82610411565b9050919050565b600073ffffffffffffffffffffffffffffffffffffffff82169050919050565b6000819050919050565b610444816103ff565b811461044f57600080fd5b50565b61045b81610431565b811461046657600080fd5b5056fea264697066735822122030168d977b710d4afc0d268883ea5cb3948a81fa024de87675bb68e3866aaa2064736f6c63430008000033",
  "immutableReferences": {},
  "source": "pragma solidity ^0.8.0;\r\n\r\ncontract PaymentProcessor {\r\n    event PaymentSent(address indexed _from, address indexed _to, uint256 _amount);\r\n\r\n    function sendPayment(address payable _to, uint256 _amount) public payable {\r\n        require(_amount <= msg.value, \"Insufficient funds sent\");\r\n        _to.transfer(_amount);\r\n        emit PaymentSent(msg.sender, _to, _amount);\r\n    }\r\n\r\n    receive() external payable {}\r\n\r\n    function withdraw() public {\r\n        require(msg.sender == owner(), \"Only the owner can withdraw\");\r\n        payable(owner()).transfer(address(this).balance);\r\n    }\r\n\r\n    modifier onlyOwner() {\r\n        require(msg.sender == owner(), \"Caller is not the owner\");\r\n        _;\r\n    }\r\n\r\n    function owner() public view returns (address) {\r\n        return msg.sender;\r\n    }\r\n}\r\n",
  "sourcePath": "C:\\Users\\jayes\\Desktop\\mediconnect\\blockchain\\contracts\\PaymentProcessor.sol",
  "compiler": {
    "name": "solc",
    "version": "0.8.0+commit.c7dfd78e.Emscripten.clang"
  },
  "schemaVersion": "3.4.16",
  "updatedAt": "2024-05-08T11:49:45.267Z",
  "devdoc": {
    "kind": "dev",
    "methods": {},
    "version": 1
  },
  "userdoc": {
    "kind": "user",
    "methods": {},
    "version": 1
  }
}